{
  "contractName": "RockPaperScissors",
  "abi": [
    {
      "inputs": [],
      "stateMutability": "nonpayable",
      "type": "constructor"
    },
    {
      "inputs": [],
      "name": "gameID",
      "outputs": [
        {
          "internalType": "uint256",
          "name": "",
          "type": "uint256"
        }
      ],
      "stateMutability": "view",
      "type": "function",
      "constant": true
    },
    {
      "inputs": [
        {
          "internalType": "uint256",
          "name": "",
          "type": "uint256"
        }
      ],
      "name": "games",
      "outputs": [
        {
          "internalType": "uint256",
          "name": "id",
          "type": "uint256"
        },
        {
          "internalType": "uint256",
          "name": "bet",
          "type": "uint256"
        },
        {
          "internalType": "enum RockPaperScissors.State",
          "name": "state",
          "type": "uint8"
        }
      ],
      "stateMutability": "view",
      "type": "function",
      "constant": true
    },
    {
      "inputs": [
        {
          "internalType": "uint256",
          "name": "",
          "type": "uint256"
        },
        {
          "internalType": "address",
          "name": "",
          "type": "address"
        }
      ],
      "name": "moves",
      "outputs": [
        {
          "internalType": "bytes32",
          "name": "hash",
          "type": "bytes32"
        },
        {
          "internalType": "uint256",
          "name": "value",
          "type": "uint256"
        }
      ],
      "stateMutability": "view",
      "type": "function",
      "constant": true
    },
    {
      "inputs": [
        {
          "internalType": "uint256",
          "name": "",
          "type": "uint256"
        }
      ],
      "name": "winningCombinations",
      "outputs": [
        {
          "internalType": "uint256",
          "name": "",
          "type": "uint256"
        }
      ],
      "stateMutability": "view",
      "type": "function",
      "constant": true
    },
    {
      "inputs": [
        {
          "internalType": "address payable",
          "name": "contestant",
          "type": "address"
        }
      ],
      "name": "createGame",
      "outputs": [],
      "stateMutability": "payable",
      "type": "function",
      "payable": true
    },
    {
      "inputs": [
        {
          "internalType": "uint256",
          "name": "_gameID",
          "type": "uint256"
        }
      ],
      "name": "getGamePlayers",
      "outputs": [
        {
          "internalType": "address payable[]",
          "name": "",
          "type": "address[]"
        }
      ],
      "stateMutability": "view",
      "type": "function",
      "constant": true
    },
    {
      "inputs": [
        {
          "internalType": "uint256",
          "name": "_gameID",
          "type": "uint256"
        }
      ],
      "name": "joinGame",
      "outputs": [],
      "stateMutability": "payable",
      "type": "function",
      "payable": true
    },
    {
      "inputs": [
        {
          "internalType": "uint256",
          "name": "_gameID",
          "type": "uint256"
        },
        {
          "internalType": "uint256",
          "name": "moveID",
          "type": "uint256"
        },
        {
          "internalType": "uint256",
          "name": "salt",
          "type": "uint256"
        }
      ],
      "name": "commitMove",
      "outputs": [],
      "stateMutability": "nonpayable",
      "type": "function"
    },
    {
      "inputs": [
        {
          "internalType": "uint256",
          "name": "_gameID",
          "type": "uint256"
        },
        {
          "internalType": "uint256",
          "name": "moveID",
          "type": "uint256"
        },
        {
          "internalType": "uint256",
          "name": "salt",
          "type": "uint256"
        }
      ],
      "name": "revealMove",
      "outputs": [],
      "stateMutability": "nonpayable",
      "type": "function"
    }
  ],
  "bytecode": "0x608060405234801561001057600080fd5b506003806000600181526020019081526020016000208190555060016003600060028152602001908152602001600020819055506002600360006003815260200190815260200160002081905550611da58061006d6000396000f3fe6080604052600436106100865760003560e01c8063354fe54a11610059578063354fe54a1461016e5780633ec8ff7014610197578063474d0b5a146101d4578063c7dd4b4f146101f0578063efaa55a01461021b57610086565b8063117a5b901461008b57806315a40f49146100ca57806322337a881461010757806334d3ce4b14610145575b600080fd5b34801561009757600080fd5b506100b260048036038101906100ad91906113d7565b610237565b6040516100c193929190611890565b60405180910390f35b3480156100d657600080fd5b506100f160048036038101906100ec91906113d7565b61026e565b6040516100fe91906116ea565b60405180910390f35b34801561011357600080fd5b5061012e60048036038101906101299190611404565b610311565b60405161013c92919061170c565b60405180910390f35b34801561015157600080fd5b5061016c60048036038101906101679190611444565b610342565b005b34801561017a57600080fd5b5061019560048036038101906101909190611444565b610837565b005b3480156101a357600080fd5b506101be60048036038101906101b991906113d7565b610e9d565b6040516101cb9190611875565b60405180910390f35b6101ee60048036038101906101e991906113aa565b610eb5565b005b3480156101fc57600080fd5b506102056110a6565b6040516102129190611875565b60405180910390f35b610235600480360381019061023091906113d7565b6110ac565b005b60006020528060005260406000206000915090508060000154908060010154908060030160009054906101000a900460ff16905083565b606060008083815260200190815260200160002060020180548060200260200160405190810160405280929190818152602001828054801561030557602002820191906000526020600020905b8160009054906101000a900473ffffffffffffffffffffffffffffffffffffffff1673ffffffffffffffffffffffffffffffffffffffff16815260200190600101908083116102bb575b50505050509050919050565b6002602052816000526040600020602052806000526040600020600091509150508060000154908060010154905082565b600080600085815260200190815260200160002090506001600381111561036c5761036b611a9e565b5b8160030160009054906101000a900460ff1660038111156103905761038f611a9e565b5b146103d0576040517f08c379a00000000000000000000000000000000000000000000000000000000081526004016103c7906117d5565b60405180910390fd5b806002016000815481106103e7576103e6611acd565b5b9060005260206000200160009054906101000a900473ffffffffffffffffffffffffffffffffffffffff1673ffffffffffffffffffffffffffffffffffffffff163373ffffffffffffffffffffffffffffffffffffffff1614806104b757508060020160018154811061045d5761045c611acd565b5b9060005260206000200160009054906101000a900473ffffffffffffffffffffffffffffffffffffffff1673ffffffffffffffffffffffffffffffffffffffff163373ffffffffffffffffffffffffffffffffffffffff16145b6104f6576040517f08c379a00000000000000000000000000000000000000000000000000000000081526004016104ed90611795565b60405180910390fd5b6000801b6002600086815260200190815260200160002060003373ffffffffffffffffffffffffffffffffffffffff1673ffffffffffffffffffffffffffffffffffffffff168152602001908152602001600020600001541461058e576040517f08c379a000000000000000000000000000000000000000000000000000000000815260040161058590611755565b60405180910390fd5b600183148061059d5750600283145b806105a85750600383145b6105e7576040517f08c379a00000000000000000000000000000000000000000000000000000000081526004016105de906117b5565b60405180910390fd5b82826040516020016105fa9291906116be565b604051602081830303815290604052805190602001206002600086815260200190815260200160002060003373ffffffffffffffffffffffffffffffffffffffff1673ffffffffffffffffffffffffffffffffffffffff1681526020019081526020016000206000018190555060006002600086815260200190815260200160002060003373ffffffffffffffffffffffffffffffffffffffff1673ffffffffffffffffffffffffffffffffffffffff168152602001908152602001600020600101819055506000801b600260008681526020019081526020016000206000836002016000815481106106f0576106ef611acd565b5b9060005260206000200160009054906101000a900473ffffffffffffffffffffffffffffffffffffffff1673ffffffffffffffffffffffffffffffffffffffff1673ffffffffffffffffffffffffffffffffffffffff16815260200190815260200160002060000154141580156107fe57506000801b6002600086815260200190815260200160002060008360020160018154811061079257610791611acd565b5b9060005260206000200160009054906101000a900473ffffffffffffffffffffffffffffffffffffffff1673ffffffffffffffffffffffffffffffffffffffff1673ffffffffffffffffffffffffffffffffffffffff1681526020019081526020016000206000015414155b156108315760028160030160006101000a81548160ff0219169083600381111561082b5761082a611a9e565b5b02179055505b50505050565b6000806000858152602001908152602001600020905060006002600086815260200190815260200160002060008360020160008154811061087b5761087a611acd565b5b9060005260206000200160009054906101000a900473ffffffffffffffffffffffffffffffffffffffff1673ffffffffffffffffffffffffffffffffffffffff1673ffffffffffffffffffffffffffffffffffffffff16815260200190815260200160002090506000600260008781526020019081526020016000206000846002016001815481106109105761090f611acd565b5b9060005260206000200160009054906101000a900473ffffffffffffffffffffffffffffffffffffffff1673ffffffffffffffffffffffffffffffffffffffff1673ffffffffffffffffffffffffffffffffffffffff168152602001908152602001600020905060006002600088815260200190815260200160002060003373ffffffffffffffffffffffffffffffffffffffff1673ffffffffffffffffffffffffffffffffffffffff1681526020019081526020016000209050600260038111156109df576109de611a9e565b5b8460030160009054906101000a900460ff166003811115610a0357610a02611a9e565b5b14610a43576040517f08c379a0000000000000000000000000000000000000000000000000000000008152600401610a3a90611855565b60405180910390fd5b83600201600081548110610a5a57610a59611acd565b5b9060005260206000200160009054906101000a900473ffffffffffffffffffffffffffffffffffffffff1673ffffffffffffffffffffffffffffffffffffffff163373ffffffffffffffffffffffffffffffffffffffff161480610b2a575083600201600181548110610ad057610acf611acd565b5b9060005260206000200160009054906101000a900473ffffffffffffffffffffffffffffffffffffffff1673ffffffffffffffffffffffffffffffffffffffff163373ffffffffffffffffffffffffffffffffffffffff16145b610b69576040517f08c379a0000000000000000000000000000000000000000000000000000000008152600401610b6090611795565b60405180910390fd5b8585604051602001610b7c9291906116be565b60405160208183030381529060405280519060200120816000015414610bd7576040517f08c379a0000000000000000000000000000000000000000000000000000000008152600401610bce90611815565b60405180910390fd5b8581600101819055506000836001015414158015610bfa57506000826001015414155b15610e9357816001015483600101541415610d5d5783600201600081548110610c2657610c25611acd565b5b9060005260206000200160009054906101000a900473ffffffffffffffffffffffffffffffffffffffff1673ffffffffffffffffffffffffffffffffffffffff166108fc85600101549081150290604051600060405180830381858888f19350505050158015610c9a573d6000803e3d6000fd5b5083600201600181548110610cb257610cb1611acd565b5b9060005260206000200160009054906101000a900473ffffffffffffffffffffffffffffffffffffffff1673ffffffffffffffffffffffffffffffffffffffff166108fc85600101549081150290604051600060405180830381858888f19350505050158015610d26573d6000803e3d6000fd5b5060038460030160006101000a81548160ff02191690836003811115610d4f57610d4e611a9e565b5b021790555050505050610e98565b6000826001015460036000866001015481526020019081526020016000205414610dc85784600201600181548110610d9857610d97611acd565b5b9060005260206000200160009054906101000a900473ffffffffffffffffffffffffffffffffffffffff16610e0b565b84600201600081548110610ddf57610dde611acd565b5b9060005260206000200160009054906101000a900473ffffffffffffffffffffffffffffffffffffffff165b90508073ffffffffffffffffffffffffffffffffffffffff166108fc86600101546002610e389190611911565b9081150290604051600060405180830381858888f19350505050158015610e63573d6000803e3d6000fd5b5060038560030160006101000a81548160ff02191690836003811115610e8c57610e8b611a9e565b5b0217905550505b505050505b505050565b60036020528060005260406000206000915090505481565b60003411610ef8576040517f08c379a0000000000000000000000000000000000000000000000000000000008152600401610eef90611835565b60405180910390fd5b6000600267ffffffffffffffff811115610f1557610f14611afc565b5b604051908082528060200260200182016040528015610f435781602001602082028036833780820191505090505b5090503381600081518110610f5b57610f5a611acd565b5b602002602001019073ffffffffffffffffffffffffffffffffffffffff16908173ffffffffffffffffffffffffffffffffffffffff16815250508181600181518110610faa57610fa9611acd565b5b602002602001019073ffffffffffffffffffffffffffffffffffffffff16908173ffffffffffffffffffffffffffffffffffffffff16815250506001546000806001548152602001908152602001600020600001819055503460008060015481526020019081526020016000206001018190555080600080600154815260200190815260200160002060020190805190602001906110499291906112c4565b506000806000600154815260200190815260200160002060030160006101000a81548160ff0219169083600381111561108557611084611a9e565b5b02179055506001600081548092919061109d90611a1c565b91905055505050565b60015481565b60008060008381526020019081526020016000209050806002016001815481106110d9576110d8611acd565b5b9060005260206000200160009054906101000a900473ffffffffffffffffffffffffffffffffffffffff1673ffffffffffffffffffffffffffffffffffffffff163373ffffffffffffffffffffffffffffffffffffffff1614611171576040517f08c379a000000000000000000000000000000000000000000000000000000000815260040161116890611735565b60405180910390fd5b80600101543410156111b8576040517f08c379a00000000000000000000000000000000000000000000000000000000081526004016111af90611775565b60405180910390fd5b600060038111156111cc576111cb611a9e565b5b8160030160009054906101000a900460ff1660038111156111f0576111ef611a9e565b5b14611230576040517f08c379a0000000000000000000000000000000000000000000000000000000008152600401611227906117f5565b60405180910390fd5b8060010154341115611293573373ffffffffffffffffffffffffffffffffffffffff166108fc826001015434611266919061196b565b9081150290604051600060405180830381858888f19350505050158015611291573d6000803e3d6000fd5b505b60018160030160006101000a81548160ff021916908360038111156112bb576112ba611a9e565b5b02179055505050565b82805482825590600052602060002090810192821561133d579160200282015b8281111561133c5782518260006101000a81548173ffffffffffffffffffffffffffffffffffffffff021916908373ffffffffffffffffffffffffffffffffffffffff160217905550916020019190600101906112e4565b5b50905061134a919061134e565b5090565b5b8082111561136757600081600090555060010161134f565b5090565b60008135905061137a81611d2a565b92915050565b60008135905061138f81611d41565b92915050565b6000813590506113a481611d58565b92915050565b6000602082840312156113c0576113bf611b2b565b5b60006113ce84828501611380565b91505092915050565b6000602082840312156113ed576113ec611b2b565b5b60006113fb84828501611395565b91505092915050565b6000806040838503121561141b5761141a611b2b565b5b600061142985828601611395565b925050602061143a8582860161136b565b9150509250929050565b60008060006060848603121561145d5761145c611b2b565b5b600061146b86828701611395565b935050602061147c86828701611395565b925050604061148d86828701611395565b9150509250925092565b60006114a383836114af565b60208301905092915050565b6114b8816119b1565b82525050565b60006114c9826118d7565b6114d381856118ef565b93506114de836118c7565b8060005b8381101561150f5781516114f68882611497565b9750611501836118e2565b9250506001810190506114e2565b5085935050505092915050565b611525816119c3565b82525050565b61153481611a0a565b82525050565b6000611547601c83611900565b915061155282611b30565b602082019050919050565b600061156a601583611900565b915061157582611b59565b602082019050919050565b600061158d602c83611900565b915061159882611b82565b604082019050919050565b60006115b0602583611900565b91506115bb82611bd1565b604082019050919050565b60006115d3601d83611900565b91506115de82611c20565b602082019050919050565b60006115f6601c83611900565b915061160182611c49565b602082019050919050565b6000611619601d83611900565b915061162482611c72565b602082019050919050565b600061163c602083611900565b915061164782611c9b565b602082019050919050565b600061165f601b83611900565b915061166a82611cc4565b602082019050919050565b6000611682601e83611900565b915061168d82611ced565b602082019050919050565b6116a181611a00565b82525050565b6116b86116b382611a00565b611a65565b82525050565b60006116ca82856116a7565b6020820191506116da82846116a7565b6020820191508190509392505050565b6000602082019050818103600083015261170481846114be565b905092915050565b6000604082019050611721600083018561151c565b61172e6020830184611698565b9392505050565b6000602082019050818103600083015261174e8161153a565b9050919050565b6000602082019050818103600083015261176e8161155d565b9050919050565b6000602082019050818103600083015261178e81611580565b9050919050565b600060208201905081810360008301526117ae816115a3565b9050919050565b600060208201905081810360008301526117ce816115c6565b9050919050565b600060208201905081810360008301526117ee816115e9565b9050919050565b6000602082019050818103600083015261180e8161160c565b9050919050565b6000602082019050818103600083015261182e8161162f565b9050919050565b6000602082019050818103600083015261184e81611652565b9050919050565b6000602082019050818103600083015261186e81611675565b9050919050565b600060208201905061188a6000830184611698565b92915050565b60006060820190506118a56000830186611698565b6118b26020830185611698565b6118bf604083018461152b565b949350505050565b6000819050602082019050919050565b600081519050919050565b6000602082019050919050565b600082825260208201905092915050565b600082825260208201905092915050565b600061191c82611a00565b915061192783611a00565b9250817fffffffffffffffffffffffffffffffffffffffffffffffffffffffffffffffff04831182151516156119605761195f611a6f565b5b828202905092915050565b600061197682611a00565b915061198183611a00565b92508282101561199457611993611a6f565b5b828203905092915050565b60006119aa826119e0565b9050919050565b60006119bc826119e0565b9050919050565b6000819050919050565b60008190506119db82611d16565b919050565b600073ffffffffffffffffffffffffffffffffffffffff82169050919050565b6000819050919050565b6000611a15826119cd565b9050919050565b6000611a2782611a00565b91507fffffffffffffffffffffffffffffffffffffffffffffffffffffffffffffffff821415611a5a57611a59611a6f565b5b600182019050919050565b6000819050919050565b7f4e487b7100000000000000000000000000000000000000000000000000000000600052601160045260246000fd5b7f4e487b7100000000000000000000000000000000000000000000000000000000600052602160045260246000fd5b7f4e487b7100000000000000000000000000000000000000000000000000000000600052603260045260246000fd5b7f4e487b7100000000000000000000000000000000000000000000000000000000600052604160045260246000fd5b600080fd5b7f53656e646572206d757374206265207365636f6e6420706c6179657200000000600082015250565b7f4d6f766520616c726561647920636f6d6d697465640000000000000000000000600082015250565b7f4d6f7265206574686572206e6565647320746f2062652073656e7420696e206f60008201527f7264657220746f206a6f696e0000000000000000000000000000000000000000602082015250565b7f53656e646572206973206e6f74206f6e65206f66207468652067616d6520706c60008201527f6179657273000000000000000000000000000000000000000000000000000000602082015250565b7f4d6f7665206d757374206265206f6e65206f6620312c2032206f722033000000600082015250565b7f47616d65206d75737420626520696e204a6f696e656420737461746500000000600082015250565b7f47616d65206d75737420626520696e2043726561746564207374617465000000600082015250565b7f4d6f7665494420646f6573206e6f74206d6174636820636f6d6d69746d656e74600082015250565b7f596f75206861766520746f2073656e6420736f6d652065746865720000000000600082015250565b7f47616d65206d75737420626520696e20436f6d6d697465642073746174650000600082015250565b60048110611d2757611d26611a9e565b5b50565b611d338161199f565b8114611d3e57600080fd5b50565b611d4a816119b1565b8114611d5557600080fd5b50565b611d6181611a00565b8114611d6c57600080fd5b5056fea2646970667358221220ebd95518d92e6ace38134839409efa7a144cee8e9dc215ebeca700b9db83687d64736f6c63430008060033",
  "immutableReferences": {},
  "source": "// SPDX-License-Identifier: GPL-3.0\n\npragma solidity ^0.8.6;\n\ncontract RockPaperScissors {\n    enum State {\n        Created,\n        Joined,\n        Commited,\n        Revealed\n    }\n\n    struct Game {\n        uint id;\n        uint bet;\n        address payable[] players;\n        State state;\n    }\n    mapping(uint => Game) public games;\n    uint public gameID;\n\n    struct Move {\n      bytes32 hash;\n      uint value;\n    }\n    mapping(uint => mapping(address => Move)) public moves;\n\n    mapping(uint => uint) public winningCombinations;\n\n    constructor() {\n        winningCombinations[1] = 3; // Rock beats scissors\n        winningCombinations[2] = 1; // Paper beats rock\n        winningCombinations[3] = 2; // Scissors beat paper\n    }\n\n    function createGame(address payable contestant) external payable {\n        require(msg.value > 0, \"You have to send some ether\");\n\n        address payable[] memory players = new address payable[](2);\n\n        players[0] = payable(msg.sender);\n        players[1] = contestant;\n\n        games[gameID].id = gameID;\n        games[gameID].bet = msg.value;\n        games[gameID].players = players;\n        games[gameID].state = State.Created;\n\n        gameID++;\n    }\n\n    function getGamePlayers(uint _gameID) public view returns(address payable[] memory) {\n        return games[_gameID].players;\n    }\n\n    function joinGame(uint _gameID) external payable {\n        Game storage game = games[_gameID];\n\n        require(msg.sender == game.players[1], \"Sender must be second player\");\n        require(msg.value >= game.bet, \"More ether needs to be sent in order to join\");\n        require(game.state == State.Created, \"Game must be in Created state\");\n\n        if (msg.value > game.bet) {\n          payable(msg.sender).transfer(msg.value - game.bet); // Sender only pays bet value, refund difference otherwise\n        }\n\n        game.state = State.Joined;\n    }\n\n    function commitMove(uint _gameID, uint moveID, uint salt) external {\n        Game storage game = games[_gameID];\n\n        require(game.state == State.Joined, \"Game must be in Joined state\");\n        require(msg.sender == game.players[0] || msg.sender == game.players[1], \"Sender is not one of the game players\");\n        require(moves[_gameID][msg.sender].hash == 0, \"Move already commited\");\n        require(moveID == 1 || moveID == 2 || moveID == 3, \"Move must be one of 1, 2 or 3\");\n\n        moves[_gameID][msg.sender].hash = keccak256(abi.encodePacked(moveID, salt));\n        moves[_gameID][msg.sender].value = 0;\n\n        // Change state when both players have commited a move\n        if (moves[_gameID][game.players[0]].hash != 0 && moves[_gameID][game.players[1]].hash != 0) {\n            game.state = State.Commited;\n        }\n    }\n\n    function revealMove(uint _gameID, uint moveID, uint salt) external {\n        Game storage game = games[_gameID];\n        Move storage moveOne = moves[_gameID][game.players[0]];\n        Move storage moveTwo = moves[_gameID][game.players[1]];\n        Move storage moveSender = moves[_gameID][msg.sender];\n\n        require(game.state == State.Commited, \"Game must be in Commited state\");\n        require(msg.sender == game.players[0] || msg.sender == game.players[1], \"Sender is not one of the game players\");\n        require(moveSender.hash == keccak256(abi.encodePacked(moveID, salt)), \"MoveID does not match commitment\");\n\n        moveSender.value = moveID;\n\n        // Conclude game only if both moves have been saved\n        if (moveOne.value != 0 && moveTwo.value != 0) {\n            if (moveOne.value == moveTwo.value) { // Tie game, refund both players\n                game.players[0].transfer(game.bet);\n                game.players[1].transfer(game.bet);\n                game.state = State.Revealed;\n                return;\n            }\n\n            address payable winner;\n            winner = winningCombinations[moveOne.value] == moveTwo.value ? game.players[0] : game.players[1];\n            winner.transfer(2 * game.bet);\n            game.state = State.Revealed;\n        }\n    }\n}\n",
  "sourcePath": "/Users/aclapinpepin/code/ethereum-portfolio/rockPaperScissors/contracts/RockPaperScissors.sol",
  "compiler": {
    "name": "solc",
    "version": "0.8.6+commit.11564f7e.Emscripten.clang"
  },
  "schemaVersion": "3.4.1",
  "updatedAt": "2021-07-01T12:15:06.909Z",
  "networkType": "ethereum",
  "devdoc": {
    "kind": "dev",
    "methods": {},
    "version": 1
  },
  "userdoc": {
    "kind": "user",
    "methods": {},
    "version": 1
  }
}