{
  "contractName": "RockPaperScissors",
  "abi": [
    {
      "inputs": [],
      "stateMutability": "nonpayable",
      "type": "constructor"
    },
    {
      "inputs": [],
      "name": "gameID",
      "outputs": [
        {
          "internalType": "uint256",
          "name": "",
          "type": "uint256"
        }
      ],
      "stateMutability": "view",
      "type": "function",
      "constant": true
    },
    {
      "inputs": [
        {
          "internalType": "uint256",
          "name": "",
          "type": "uint256"
        }
      ],
      "name": "games",
      "outputs": [
        {
          "internalType": "uint256",
          "name": "id",
          "type": "uint256"
        },
        {
          "internalType": "uint256",
          "name": "bet",
          "type": "uint256"
        },
        {
          "internalType": "enum RockPaperScissors.State",
          "name": "state",
          "type": "uint8"
        }
      ],
      "stateMutability": "view",
      "type": "function",
      "constant": true
    },
    {
      "inputs": [
        {
          "internalType": "uint256",
          "name": "",
          "type": "uint256"
        },
        {
          "internalType": "address",
          "name": "",
          "type": "address"
        }
      ],
      "name": "moves",
      "outputs": [
        {
          "internalType": "bytes32",
          "name": "hash",
          "type": "bytes32"
        },
        {
          "internalType": "uint256",
          "name": "value",
          "type": "uint256"
        }
      ],
      "stateMutability": "view",
      "type": "function",
      "constant": true
    },
    {
      "inputs": [
        {
          "internalType": "uint256",
          "name": "",
          "type": "uint256"
        }
      ],
      "name": "winningCombinations",
      "outputs": [
        {
          "internalType": "uint256",
          "name": "",
          "type": "uint256"
        }
      ],
      "stateMutability": "view",
      "type": "function",
      "constant": true
    },
    {
      "inputs": [
        {
          "internalType": "address payable",
          "name": "contestant",
          "type": "address"
        }
      ],
      "name": "createGame",
      "outputs": [],
      "stateMutability": "payable",
      "type": "function",
      "payable": true
    },
    {
      "inputs": [
        {
          "internalType": "uint256",
          "name": "_gameID",
          "type": "uint256"
        }
      ],
      "name": "joinGame",
      "outputs": [],
      "stateMutability": "payable",
      "type": "function",
      "payable": true
    },
    {
      "inputs": [
        {
          "internalType": "uint256",
          "name": "_gameID",
          "type": "uint256"
        },
        {
          "internalType": "uint256",
          "name": "moveID",
          "type": "uint256"
        },
        {
          "internalType": "uint256",
          "name": "salt",
          "type": "uint256"
        }
      ],
      "name": "commitMove",
      "outputs": [],
      "stateMutability": "nonpayable",
      "type": "function"
    },
    {
      "inputs": [
        {
          "internalType": "uint256",
          "name": "_gameID",
          "type": "uint256"
        },
        {
          "internalType": "uint256",
          "name": "moveID",
          "type": "uint256"
        },
        {
          "internalType": "uint256",
          "name": "salt",
          "type": "uint256"
        }
      ],
      "name": "revealMove",
      "outputs": [],
      "stateMutability": "nonpayable",
      "type": "function"
    }
  ],
  "bytecode": "0x608060405234801561001057600080fd5b506003806000600181526020019081526020016000208190555060016003600060028152602001908152602001600020819055506002600360006003815260200190815260200160002081905550611bda8061006d6000396000f3fe60806040526004361061007b5760003560e01c80633ec8ff701161004e5780633ec8ff701461014f578063474d0b5a1461018c578063c7dd4b4f146101a8578063efaa55a0146101d35761007b565b8063117a5b901461008057806322337a88146100bf57806334d3ce4b146100fd578063354fe54a14610126575b600080fd5b34801561008c57600080fd5b506100a760048036038101906100a291906112ec565b6101ef565b6040516100b6939291906116fe565b60405180910390f35b3480156100cb57600080fd5b506100e660048036038101906100e19190611319565b610226565b6040516100f492919061157a565b60405180910390f35b34801561010957600080fd5b50610124600480360381019061011f9190611359565b610257565b005b34801561013257600080fd5b5061014d60048036038101906101489190611359565b61074c565b005b34801561015b57600080fd5b50610176600480360381019061017191906112ec565b610db2565b60405161018391906116e3565b60405180910390f35b6101a660048036038101906101a191906112bf565b610dca565b005b3480156101b457600080fd5b506101bd610fbb565b6040516101ca91906116e3565b60405180910390f35b6101ed60048036038101906101e891906112ec565b610fc1565b005b60006020528060005260406000206000915090508060000154908060010154908060030160009054906101000a900460ff16905083565b6002602052816000526040600020602052806000526040600020600091509150508060000154908060010154905082565b6000806000858152602001908152602001600020905060016003811115610281576102806118d3565b5b8160030160009054906101000a900460ff1660038111156102a5576102a46118d3565b5b146102e5576040517f08c379a00000000000000000000000000000000000000000000000000000000081526004016102dc90611643565b60405180910390fd5b806002016000815481106102fc576102fb611902565b5b9060005260206000200160009054906101000a900473ffffffffffffffffffffffffffffffffffffffff1673ffffffffffffffffffffffffffffffffffffffff163373ffffffffffffffffffffffffffffffffffffffff1614806103cc57508060020160018154811061037257610371611902565b5b9060005260206000200160009054906101000a900473ffffffffffffffffffffffffffffffffffffffff1673ffffffffffffffffffffffffffffffffffffffff163373ffffffffffffffffffffffffffffffffffffffff16145b61040b576040517f08c379a000000000000000000000000000000000000000000000000000000000815260040161040290611603565b60405180910390fd5b6000801b6002600086815260200190815260200160002060003373ffffffffffffffffffffffffffffffffffffffff1673ffffffffffffffffffffffffffffffffffffffff16815260200190815260200160002060000154146104a3576040517f08c379a000000000000000000000000000000000000000000000000000000000815260040161049a906115c3565b60405180910390fd5b60018314806104b25750600283145b806104bd5750600383145b6104fc576040517f08c379a00000000000000000000000000000000000000000000000000000000081526004016104f390611623565b60405180910390fd5b828260405160200161050f92919061154e565b604051602081830303815290604052805190602001206002600086815260200190815260200160002060003373ffffffffffffffffffffffffffffffffffffffff1673ffffffffffffffffffffffffffffffffffffffff1681526020019081526020016000206000018190555060006002600086815260200190815260200160002060003373ffffffffffffffffffffffffffffffffffffffff1673ffffffffffffffffffffffffffffffffffffffff168152602001908152602001600020600101819055506000801b6002600086815260200190815260200160002060008360020160008154811061060557610604611902565b5b9060005260206000200160009054906101000a900473ffffffffffffffffffffffffffffffffffffffff1673ffffffffffffffffffffffffffffffffffffffff1673ffffffffffffffffffffffffffffffffffffffff168152602001908152602001600020600001541415801561071357506000801b600260008681526020019081526020016000206000836002016001815481106106a7576106a6611902565b5b9060005260206000200160009054906101000a900473ffffffffffffffffffffffffffffffffffffffff1673ffffffffffffffffffffffffffffffffffffffff1673ffffffffffffffffffffffffffffffffffffffff1681526020019081526020016000206000015414155b156107465760028160030160006101000a81548160ff021916908360038111156107405761073f6118d3565b5b02179055505b50505050565b600080600085815260200190815260200160002090506000600260008681526020019081526020016000206000836002016000815481106107905761078f611902565b5b9060005260206000200160009054906101000a900473ffffffffffffffffffffffffffffffffffffffff1673ffffffffffffffffffffffffffffffffffffffff1673ffffffffffffffffffffffffffffffffffffffff168152602001908152602001600020905060006002600087815260200190815260200160002060008460020160018154811061082557610824611902565b5b9060005260206000200160009054906101000a900473ffffffffffffffffffffffffffffffffffffffff1673ffffffffffffffffffffffffffffffffffffffff1673ffffffffffffffffffffffffffffffffffffffff168152602001908152602001600020905060006002600088815260200190815260200160002060003373ffffffffffffffffffffffffffffffffffffffff1673ffffffffffffffffffffffffffffffffffffffff1681526020019081526020016000209050600260038111156108f4576108f36118d3565b5b8460030160009054906101000a900460ff166003811115610918576109176118d3565b5b14610958576040517f08c379a000000000000000000000000000000000000000000000000000000000815260040161094f906116c3565b60405180910390fd5b8360020160008154811061096f5761096e611902565b5b9060005260206000200160009054906101000a900473ffffffffffffffffffffffffffffffffffffffff1673ffffffffffffffffffffffffffffffffffffffff163373ffffffffffffffffffffffffffffffffffffffff161480610a3f5750836002016001815481106109e5576109e4611902565b5b9060005260206000200160009054906101000a900473ffffffffffffffffffffffffffffffffffffffff1673ffffffffffffffffffffffffffffffffffffffff163373ffffffffffffffffffffffffffffffffffffffff16145b610a7e576040517f08c379a0000000000000000000000000000000000000000000000000000000008152600401610a7590611603565b60405180910390fd5b8585604051602001610a9192919061154e565b60405160208183030381529060405280519060200120816000015414610aec576040517f08c379a0000000000000000000000000000000000000000000000000000000008152600401610ae390611683565b60405180910390fd5b8581600101819055506000836001015414158015610b0f57506000826001015414155b15610da857816001015483600101541415610c725783600201600081548110610b3b57610b3a611902565b5b9060005260206000200160009054906101000a900473ffffffffffffffffffffffffffffffffffffffff1673ffffffffffffffffffffffffffffffffffffffff166108fc85600101549081150290604051600060405180830381858888f19350505050158015610baf573d6000803e3d6000fd5b5083600201600181548110610bc757610bc6611902565b5b9060005260206000200160009054906101000a900473ffffffffffffffffffffffffffffffffffffffff1673ffffffffffffffffffffffffffffffffffffffff166108fc85600101549081150290604051600060405180830381858888f19350505050158015610c3b573d6000803e3d6000fd5b5060038460030160006101000a81548160ff02191690836003811115610c6457610c636118d3565b5b021790555050505050610dad565b6000826001015460036000866001015481526020019081526020016000205414610cdd5784600201600181548110610cad57610cac611902565b5b9060005260206000200160009054906101000a900473ffffffffffffffffffffffffffffffffffffffff16610d20565b84600201600081548110610cf457610cf3611902565b5b9060005260206000200160009054906101000a900473ffffffffffffffffffffffffffffffffffffffff165b90508073ffffffffffffffffffffffffffffffffffffffff166108fc86600101546002610d4d9190611746565b9081150290604051600060405180830381858888f19350505050158015610d78573d6000803e3d6000fd5b5060038560030160006101000a81548160ff02191690836003811115610da157610da06118d3565b5b0217905550505b505050505b505050565b60036020528060005260406000206000915090505481565b60003411610e0d576040517f08c379a0000000000000000000000000000000000000000000000000000000008152600401610e04906116a3565b60405180910390fd5b6000600267ffffffffffffffff811115610e2a57610e29611931565b5b604051908082528060200260200182016040528015610e585781602001602082028036833780820191505090505b5090503381600081518110610e7057610e6f611902565b5b602002602001019073ffffffffffffffffffffffffffffffffffffffff16908173ffffffffffffffffffffffffffffffffffffffff16815250508181600181518110610ebf57610ebe611902565b5b602002602001019073ffffffffffffffffffffffffffffffffffffffff16908173ffffffffffffffffffffffffffffffffffffffff1681525050600154600080600154815260200190815260200160002060000181905550346000806001548152602001908152602001600020600101819055508060008060015481526020019081526020016000206002019080519060200190610f5e9291906111d9565b506000806000600154815260200190815260200160002060030160006101000a81548160ff02191690836003811115610f9a57610f996118d3565b5b021790555060016000815480929190610fb290611851565b91905055505050565b60015481565b6000806000838152602001908152602001600020905080600201600181548110610fee57610fed611902565b5b9060005260206000200160009054906101000a900473ffffffffffffffffffffffffffffffffffffffff1673ffffffffffffffffffffffffffffffffffffffff163373ffffffffffffffffffffffffffffffffffffffff1614611086576040517f08c379a000000000000000000000000000000000000000000000000000000000815260040161107d906115a3565b60405180910390fd5b80600101543410156110cd576040517f08c379a00000000000000000000000000000000000000000000000000000000081526004016110c4906115e3565b60405180910390fd5b600060038111156110e1576110e06118d3565b5b8160030160009054906101000a900460ff166003811115611105576111046118d3565b5b14611145576040517f08c379a000000000000000000000000000000000000000000000000000000000815260040161113c90611663565b60405180910390fd5b80600101543411156111a8573373ffffffffffffffffffffffffffffffffffffffff166108fc82600101543461117b91906117a0565b9081150290604051600060405180830381858888f193505050501580156111a6573d6000803e3d6000fd5b505b60018160030160006101000a81548160ff021916908360038111156111d0576111cf6118d3565b5b02179055505050565b828054828255906000526020600020908101928215611252579160200282015b828111156112515782518260006101000a81548173ffffffffffffffffffffffffffffffffffffffff021916908373ffffffffffffffffffffffffffffffffffffffff160217905550916020019190600101906111f9565b5b50905061125f9190611263565b5090565b5b8082111561127c576000816000905550600101611264565b5090565b60008135905061128f81611b5f565b92915050565b6000813590506112a481611b76565b92915050565b6000813590506112b981611b8d565b92915050565b6000602082840312156112d5576112d4611960565b5b60006112e384828501611295565b91505092915050565b60006020828403121561130257611301611960565b5b6000611310848285016112aa565b91505092915050565b600080604083850312156113305761132f611960565b5b600061133e858286016112aa565b925050602061134f85828601611280565b9150509250929050565b60008060006060848603121561137257611371611960565b5b6000611380868287016112aa565b9350506020611391868287016112aa565b92505060406113a2868287016112aa565b9150509250925092565b6113b5816117f8565b82525050565b6113c48161183f565b82525050565b60006113d7601c83611735565b91506113e282611965565b602082019050919050565b60006113fa601583611735565b91506114058261198e565b602082019050919050565b600061141d602c83611735565b9150611428826119b7565b604082019050919050565b6000611440602583611735565b915061144b82611a06565b604082019050919050565b6000611463601d83611735565b915061146e82611a55565b602082019050919050565b6000611486601c83611735565b915061149182611a7e565b602082019050919050565b60006114a9601d83611735565b91506114b482611aa7565b602082019050919050565b60006114cc602083611735565b91506114d782611ad0565b602082019050919050565b60006114ef601b83611735565b91506114fa82611af9565b602082019050919050565b6000611512601e83611735565b915061151d82611b22565b602082019050919050565b61153181611835565b82525050565b61154861154382611835565b61189a565b82525050565b600061155a8285611537565b60208201915061156a8284611537565b6020820191508190509392505050565b600060408201905061158f60008301856113ac565b61159c6020830184611528565b9392505050565b600060208201905081810360008301526115bc816113ca565b9050919050565b600060208201905081810360008301526115dc816113ed565b9050919050565b600060208201905081810360008301526115fc81611410565b9050919050565b6000602082019050818103600083015261161c81611433565b9050919050565b6000602082019050818103600083015261163c81611456565b9050919050565b6000602082019050818103600083015261165c81611479565b9050919050565b6000602082019050818103600083015261167c8161149c565b9050919050565b6000602082019050818103600083015261169c816114bf565b9050919050565b600060208201905081810360008301526116bc816114e2565b9050919050565b600060208201905081810360008301526116dc81611505565b9050919050565b60006020820190506116f86000830184611528565b92915050565b60006060820190506117136000830186611528565b6117206020830185611528565b61172d60408301846113bb565b949350505050565b600082825260208201905092915050565b600061175182611835565b915061175c83611835565b9250817fffffffffffffffffffffffffffffffffffffffffffffffffffffffffffffffff0483118215151615611795576117946118a4565b5b828202905092915050565b60006117ab82611835565b91506117b683611835565b9250828210156117c9576117c86118a4565b5b828203905092915050565b60006117df82611815565b9050919050565b60006117f182611815565b9050919050565b6000819050919050565b600081905061181082611b4b565b919050565b600073ffffffffffffffffffffffffffffffffffffffff82169050919050565b6000819050919050565b600061184a82611802565b9050919050565b600061185c82611835565b91507fffffffffffffffffffffffffffffffffffffffffffffffffffffffffffffffff82141561188f5761188e6118a4565b5b600182019050919050565b6000819050919050565b7f4e487b7100000000000000000000000000000000000000000000000000000000600052601160045260246000fd5b7f4e487b7100000000000000000000000000000000000000000000000000000000600052602160045260246000fd5b7f4e487b7100000000000000000000000000000000000000000000000000000000600052603260045260246000fd5b7f4e487b7100000000000000000000000000000000000000000000000000000000600052604160045260246000fd5b600080fd5b7f53656e646572206d757374206265207365636f6e6420706c6179657200000000600082015250565b7f4d6f766520616c726561647920636f6d6d697465640000000000000000000000600082015250565b7f4d6f7265206574686572206e6565647320746f2062652073656e7420696e206f60008201527f7264657220746f206a6f696e0000000000000000000000000000000000000000602082015250565b7f53656e646572206973206e6f74206f6e65206f66207468652067616d6520706c60008201527f6179657273000000000000000000000000000000000000000000000000000000602082015250565b7f4d6f7665206d757374206265206f6e65206f6620312c2032206f722033000000600082015250565b7f47616d65206d75737420626520696e204a6f696e656420737461746500000000600082015250565b7f47616d65206d75737420626520696e2043726561746564207374617465000000600082015250565b7f4d6f7665494420646f6573206e6f74206d6174636820636f6d6d69746d656e74600082015250565b7f596f75206861766520746f2073656e6420736f6d652065746865720000000000600082015250565b7f47616d65206d75737420626520696e20436f6d6d697465642073746174650000600082015250565b60048110611b5c57611b5b6118d3565b5b50565b611b68816117d4565b8114611b7357600080fd5b50565b611b7f816117e6565b8114611b8a57600080fd5b50565b611b9681611835565b8114611ba157600080fd5b5056fea2646970667358221220a5f9d168575b345bbc2abe5a7800b47183bc6ddf5a5add6ee6b5d45a7fc9787a64736f6c63430008060033",
  "immutableReferences": {},
  "source": "// SPDX-License-Identifier: GPL-3.0\n\npragma solidity ^0.8.6;\n\ncontract RockPaperScissors {\n    enum State {\n        Created,\n        Joined,\n        Commited,\n        Revealed\n    }\n\n    struct Game {\n        uint id;\n        uint bet;\n        address payable[] players;\n        State state;\n    }\n    mapping(uint => Game) public games;\n    uint public gameID;\n\n    struct Move {\n      bytes32 hash;\n      uint value;\n    }\n    mapping(uint => mapping(address => Move)) public moves;\n\n    mapping(uint => uint) public winningCombinations;\n\n    constructor() {\n        winningCombinations[1] = 3; // Rock beats scissors\n        winningCombinations[2] = 1; // Paper beats rock\n        winningCombinations[3] = 2; // Scissors beat paper\n    }\n\n    function createGame(address payable contestant) external payable {\n        require(msg.value > 0, \"You have to send some ether\");\n\n        address payable[] memory players = new address payable[](2);\n\n        players[0] = payable(msg.sender);\n        players[1] = contestant;\n\n        games[gameID].id = gameID;\n        games[gameID].bet = msg.value;\n        games[gameID].players = players;\n        games[gameID].state = State.Created;\n\n        gameID++;\n    }\n\n    function joinGame(uint _gameID) external payable {\n        Game storage game = games[_gameID];\n\n        require(msg.sender == game.players[1], \"Sender must be second player\");\n        require(msg.value >= game.bet, \"More ether needs to be sent in order to join\");\n        require(game.state == State.Created, \"Game must be in Created state\");\n\n        if (msg.value > game.bet) {\n          payable(msg.sender).transfer(msg.value - game.bet); // Sender only pays bet value, refund difference otherwise\n        }\n\n        game.state = State.Joined;\n    }\n\n    function commitMove(uint _gameID, uint moveID, uint salt) external {\n        Game storage game = games[_gameID];\n\n        require(game.state == State.Joined, \"Game must be in Joined state\");\n        require(msg.sender == game.players[0] || msg.sender == game.players[1], \"Sender is not one of the game players\");\n        require(moves[_gameID][msg.sender].hash == 0, \"Move already commited\");\n        require(moveID == 1 || moveID == 2 || moveID == 3, \"Move must be one of 1, 2 or 3\");\n\n        moves[_gameID][msg.sender].hash = keccak256(abi.encodePacked(moveID, salt));\n        moves[_gameID][msg.sender].value = 0;\n\n        // Change state when both players have commited a move\n        if (moves[_gameID][game.players[0]].hash != 0 && moves[_gameID][game.players[1]].hash != 0) {\n            game.state = State.Commited;\n        }\n    }\n\n    function revealMove(uint _gameID, uint moveID, uint salt) external {\n        Game storage game = games[_gameID];\n        Move storage moveOne = moves[_gameID][game.players[0]];\n        Move storage moveTwo = moves[_gameID][game.players[1]];\n        Move storage moveSender = moves[_gameID][msg.sender];\n\n        require(game.state == State.Commited, \"Game must be in Commited state\");\n        require(msg.sender == game.players[0] || msg.sender == game.players[1], \"Sender is not one of the game players\");\n        require(moveSender.hash == keccak256(abi.encodePacked(moveID, salt)), \"MoveID does not match commitment\");\n\n        moveSender.value = moveID;\n\n        // Conclude game only if both moves have been saved\n        if (moveOne.value != 0 && moveTwo.value != 0) {\n            if (moveOne.value == moveTwo.value) { // Tie game, refund both players\n                game.players[0].transfer(game.bet);\n                game.players[1].transfer(game.bet);\n                game.state = State.Revealed;\n                return;\n            }\n\n            address payable winner;\n            winner = winningCombinations[moveOne.value] == moveTwo.value ? game.players[0] : game.players[1];\n            winner.transfer(2 * game.bet);\n            game.state = State.Revealed;\n        }\n    }\n}\n",
  "sourcePath": "/Users/aclapinpepin/code/ethereum-portfolio/rockPaperScissors/contracts/RockPaperScissors.sol",
  "compiler": {
    "name": "solc",
    "version": "0.8.6+commit.11564f7e.Emscripten.clang"
  },
  "schemaVersion": "3.4.1",
  "updatedAt": "2021-07-01T09:05:33.873Z",
  "networkType": "ethereum",
  "devdoc": {
    "kind": "dev",
    "methods": {},
    "version": 1
  },
  "userdoc": {
    "kind": "user",
    "methods": {},
    "version": 1
  }
}